:020000040000fa
:080000000001040000000000f3
:020000040000fa
:100200002f8120000eff21000e0188000000000059
:100210000c000700e05d2000010020001100070035
:10022000000020000000e000020032000000020098
:1002300000000000fe050200000000000040da009f
:100240000000fe004440a900000020000000e00083
:100250000300320000002000a00188004440a800f4
:100260000000060091018800800078000000eb008b
:1002700015003700e280400032a0b4009101ba00be
:10028000e280400032a0b4009102ba00e280400057
:1002900032a0b4000002eb00472bde00f507b200ed
:1002a000602ce10004003a000059eb008301e900f2
:1002b000fdff3e00040037006128e100010032002c
:1002c0000082eb00040007001101ba000200e00008
:1002d000e8ff3a00000006003159ba008301e90046
:1002e0000c0032002159ba008301e90008003200f5
:1002f0000400e00003003a00e280400032a0b400b5
:10030000f5ff370011d9ba008301e900faff3a007e
:100310008100e800e180400032a0b4000000060047
:080320000040da000000fe00bd
:020000040000fa
:1000080090010000900100009001000090010000a4
:100018009001000090010000900100009001000094
:1000280090010000420200009001000090010000d1
:10003800740200009001000090010000900100008f
:100048009001000090010000900100009001000064
:10005800900100006204000090010000900100007f
:100068009001000090010000900100009001000044
:100078009001000090010000900100009001000034
:100088009001000090010000900100009001000024
:10009800a6020000d80200000a0300003c0300008a
:1000a8009001000090010000900100009001000004
:1000b80090010000900100009001000090010000f4
:1000c80090010000900100009001000090010000e4
:1000d80090010000900100009001000090010000d4
:1000e80090010000900100009001000090010000c4
:0800f8009001000090010000de
:020000040000fa
:1001080090010000900100009001000090010000a3
:100118009001000090010000900100009001000093
:1001280090010000420200009001000090010000d0
:10013800740200009001000090010000900100008e
:100148009001000090010000900100009001000063
:10015800900100006204000090010000900100007e
:100168009001000090010000900100009001000043
:100178009001000090010000900100009001000033
:100188009001000090010000900100009001000023
:10019800a6020000d80200000a0300003c03000089
:1001a8009001000090010000900100009001000003
:1001b80090010000900100009001000090010000f3
:1001c80090010000900100009001000090010000e3
:1001d80090010000900100009001000090010000d3
:1001e80090010000900100009001000090010000c3
:0801f8009001000090010000dd
:020000040000fa
:100328000000fa0043a1a90042e1a800211420001e
:1003380091407800f0c9b30000c0600042e1b70006
:10034800211420009140780080cfb30000c06000e5
:100358000004a00042e1b70047a1a90046e1a800b7
:100368006114200091407800f0c9b30000c060001b
:1003780046e1b700611420009140780080cfb300b7
:1003880000c060000004a00046e1b7004ba1a9002e
:100398004ae1a800a114200091407800f0c9b300f8
:1003a80000c060004ae1b700a11420009140780025
:1003b80080cfb30000c060000004a0004ae1b7008d
:1003c8004fa1a9004ee1a800e11420009140780057
:1003d800f0c9b30000c060004ee1b700e11420008e
:1003e8009140780080cfb30000c060000004a000f6
:1003f8004ee1b70053a1a90052e1a8002115200041
:1004080091407800f0c9b30000c0600052e1b70025
:10041800211520009140780080cfb30000c0600013
:100428000004a00052e1b70057a1a90056e1a800b6
:100438006115200091407800f0c9b30000c0600049
:1004480056e1b700611520009140780080cfb300d5
:1004580000c060000004a00056e1b7008c20a8008e
:100468008c80a8008f80a8008fa0a8008fc0a8004b
:100478008fe0a8000080fa0000000600801f7800c6
:100488003400f80000002000a00188000000fa00f5
:10049800d5c2bf00614060000004e00005003200e2
:1004a8000000eb0030088800000a800060408800e7
:1004b80006003700d5c2bf00614060000004e000bc
:1004c80002003a00000a8000004088008420a90049
:1004d8000080fa003400f9004f0078000040060060
:1004e800801f78003400f80000002000a001880078
:1004f8000000fa00d5c2bf00624060000004e000be
:10050800050032000000eb0030088800200a800057
:100518006040880006003700d5c2bf006240600016
:100528000004e00002003a00200a80001040880021
:100538008480a9000080fa003400f9004f00780098
:1005480000400600801f78003400f80000002000fa
:10055800a00188000000fa00d5c2bf006440600016
:100568000004e000050032000000eb0030088800bd
:10057800400a80006040880006003700d5c2bf00ee
:10058800644060000004e00002003a00400a800075
:10059800204088008780a9000080fa003400f90014
:1005a8004f00780000400600801f78003400f800f3
:1005b80000002000a00188000000fa00d5c2bf009a
:1005c800684060000004e000050032000000eb0015
:1005d80030088800600a8000604088000600370004
:1005e800d5c2bf00684060000004e00002003a0085
:1005f800600a80003040880087a0a9000080fa00c7
:100608003400f9004f00780000400600801f780091
:100618003400f80000002000a00188000000fa0063
:10062800d4c2bf00704060000004e0000500320042
:100638000000eb0030088800800a800060408800d5
:1006480006003700d4c2bf00704060000004e0001c
:1006580002003a00800a80004040880087c0a90054
:100668000080fa003400f9004f00780000400600ce
:10067800801f78003400f80000002000a0018800e6
:100688000000fa00d4c2bf000042b2000004e0003b
:10069800050032000000eb0030088800a00a800046
:1006a8006040880006003700d4c2bf000042b20094
:1006b8000004e00002003a00a00a800050408800d0
:1006c80087e0a9000080fa003400f9004f007800a4
:1006d800004006000000fa00d202a900d222a900b8
:1006e800d242a900d262a900d2c2a900d2e2a900ce
:1006f800411820009140780080cfb30000c060000e
:1007080084e1b700a11820009140780080cfb300a1
:1007180000c060008ae1b70001192000914078000c
:1007280080cfb30000c0600090e1b70061192000dd
:100738009140780080cfb30000c0600096e1b70018
:10074800811a20009140780080cfb30000c060007b
:10075800a8e1b700e11a20009140780080cfb300eb
:1007680000c06000aee1b7008461a8008a61a800fb
:100778009061a8009661a800a861a800ae61a800d1
:100788000000eb00100c88000000eb00400c880013
:100798000000eb00700c88000000eb00a00c880043
:1007a8000000eb00300d88000000eb00600d8800b1
:1007b8008ce0a90013e1a90013a1a90012c1a900a6
:1007c8002111200091407800f0ccb30000c06000f7
:1007d8000044a00012e1b7001221a9000080eb003c
:1007e800700888000000eb00500888000080fa00bc
:1007f800000006000000fa000000eb005008880026
:10080800411820009140780080cfb30000c06000fc
:100818000014a00084e1b700a118200091407800de
:1008280080cfb30000c060000014a0008ae1b700c8
:10083800011920009140780080cfb30000c060000b
:100848000014a00090e1b7006119200091407800e1
:1008580080cfb30000c060000014a00096e1b7008c
:10086800811a20009140780080cfb30000c060005a
:100878000014a000a8e1b700e11a20009140780018
:1008880080cfb30000c060000014a000aee1b70044
:1008980013e1a8000080fa00000006000000fa003a
:1008a80007e2a9001008a9001028a9008da0a80037
:1008b80007e2a8000080fa00000006003600f800f1
:1008c800809fbe00829fbe00849fbe00869fbe00a0
:1008d8003400f80000002000a00188000000fa00a1
:1008e80008c2bf00644060000004e00009003a004c
:1008f80008c2bf000042b2000004e00005003a0050
:100908000010800011e8b7001008a8001028a900fe
:100918003e00370008c2bf00644060000004e000e9
:1009280019003a0008c2bf000042b2000004e0000b
:100938001500320010c8bf00614060000004e000ec
:10094800050032001008a9001028a8000010800037
:100958000ee8b7002d00370010c8bf0062406000e5
:100968000004e00029003200011080000ec8bf001a
:100978000080fb008a0007000ec8bf000040e800a6
:100988000ee8b7002100370008c2bf0064406000cd
:100998000004e0000e00320008c2bf000042b200ae
:1009a8000004e0000a003a000010800011e8b700d7
:1009b8000ec8bf000080fb001d0007001010880053
:1009c8000ec8bf000040e8000ee8b7000f0037006f
:1009d80008c2bf00644060000004e0000b00320061
:1009e80008c2bf000042b2000004e0000700320065
:1009f8000ec8bf000080fb000d0007001010880023
:100a08000ec8bf000040e8000ee8b70085a0a900a6
:100a18000080fa003400f9004f03be004f02be0008
:100a28004f01be004f00be003600f900004006002e
:100a38000a00fa00000f78001e0078006101b90072
:100a48003207980043079800c000200001002000ea
:100a58003e019000ce019000800f5100818f590017
:100a680049003e003e009000ce009000006001006a
:100a78000c0037001000370013003700170037004c
:100a88001a0037001e003700210037002500370004
:100a9800280037002c0037002f00370033003700bc
:100aa80036003700100c80004800de000080fb0094
:100ab8001007980035003700100c80000080fb00fc
:100ac8001007980031003700400c80004800de0015
:100ad8000080fb00100798002c003700400c8000b5
:100ae8000080fb001007980028003700700c800079
:100af8004800de000080fb00100798002300370044
:100b0800700c80000080fb00100798001f00370061
:100b1800a00c80004800de000080fb001007980051
:100b28001a003700a00c80000080fb001007980016
:100b380016003700300d80004800de000080fb0002
:100b48001007980011003700300d80000080fb006e
:100b5800100798000d003700600d80004800de0087
:100b68000080fb001007980008003700600d800027
:100b78000080fb00100798000400370011002000d7
:100b88001107980001003700020037001e0190008d
:100b9800220798002e0090000080fa00000006004e
:100ba8000400fa00000f7800110798000080fa008e
:040bb8000000060033
:020000040000fa
:100bbc000e0800000200000002000000000000000f
:100bcc0010080000020000000000000000080000f7
:100bdc000e000000020000000000000000000000f9
:100bec0000000000000000000000000000000000f9
:020000040000fa
:0c0bfc000000fa000080fa000000060073
:00000001FF
