:020000040000fa
:080000000001040000000000f3
:020000040000fa
:10020000af8220000eff21000e01880000000000d8
:100210000c000700a0b5200001002000110007001d
:10022000000020000000e000020032000000020098
:10023000000000003c0b0200000000000040da005b
:100240000000fe004440a900400020000000e00043
:100250000300320000002000a00188004440a800f4
:100260000000060091018800800078000000eb008b
:1002700015003700e280400032a0b4009101ba00be
:10028000e280400032a0b4009102ba00e280400057
:1002900032a0b4000002eb00472bde00f507b200ed
:1002a000602ce10004003a000059eb008301e900f2
:1002b000fdff3e00040037006128e100010032002c
:1002c0000082eb00040007001101ba000200e00008
:1002d000e8ff3a00000006003159ba008301e90046
:1002e0000c0032002159ba008301e90008003200f5
:1002f0000400e00003003a00e280400032a0b400b5
:10030000f5ff370011d9ba008301e900faff3a007e
:100310008100e800e180400032a0b4000000060047
:100320000040da000000fe00889fbe008a9fbe00e9
:10033000010578000100e0000400350008003c00e1
:100340000000e000200032000500370060001000cf
:10035000e080180002003b0001f02c001a0037007a
:100360000004be006011b8006b0920000982cf00b4
:10037000020039000882cf000441b00069425200f7
:100380000e00320008003b008281710061016400b0
:100390008904d1000884d3008b05e8000442e800fa
:1003a000f9ff3a00050037000804440089844c0036
:1003b0008b05e9000442e900fbff3a0096000700c4
:1003c0000af0a70001f0a0004f05be004f04be00d8
:1003d00000000600889fbe008a9fbe008c1f780028
:1003e000b3000700ba00330003866c006450e100dc
:1003f000240032006420e100270032006150e10057
:10040000220032006120e100210032008b85420091
:10041000eb07b1000134b800003ab800080442000c
:1004200089844a00013ab8000030b8008880400052
:1004300009014a00040033000000400081804800a8
:10044000020149008b05e900c909dd008301700044
:100450000100320013002000c814de004814dd0043
:100460004709de001200b200c808de0008847000f0
:100470006900070001f0a1000cf0a70001f0a00046
:100480009c0037006120e1009e0032000801be00a0
:100490000200be00f7ff37006150e100fcff3a00a8
:1004a00098003700889fbe008a9fbe008c1f78008e
:1004b0007f0007008600330003866c006450e10073
:1004c0002e0032006420e100330032006150e10070
:1004d0002f0032006120e100310032008585550097
:1004e000eb07b000090020000804200005003700d9
:1004f0000804440089844c000a00310006034300cc
:1005000087834b000001530081815b00f8ff3300bb
:100510000203be000800a0000804440089844c00c7
:10052000f6ff3900c639dd00830173000100320097
:10053000130020008904d1000884d3000998a30087
:10054000050032000800a7000300a0008904d100c4
:100550000884d3008b05e8008904d1000884d30007
:100560000001eb000281d2002b00070001f0a10086
:100570000cf0a70001f0a0005e0037006420e1004d
:10058000600032000801be000200be00f7ff370025
:100590006120e1005b0032006000b800f3ff37002b
:1005a0000000200001f82700f0ff37000001be0026
:1005b000570007000470a70003f0a10003f8a30090
:1005c00013003a006509b10010003200090035003f
:1005d0006928e10002003500010028000000050044
:1005e00000004000818048008502e900fcff3a00dd
:1005f00000000600f88f4200050035008100d100a0
:100600000080d3008502e800fcff3a0000000600ed
:100610008000eb0000000500810020006180550093
:100620000b003d000b00200061fe2f000100e100e7
:100630001d00340082817100610164008904d100d1
:100640000884d3000000e800faff3a00710020009f
:1006500061006400030070000200600009003200c5
:1006600061044400e0844c000988a50005003200c4
:100670008b05e8006808e10002003a008904d10017
:100680000884d300f20f20000258e10005003d006d
:10069000c75ddd00f907b2008980750008007800a9
:1006a000000006000bf827008b0078000000050012
:1006b0000004be00160007000003be000405be00d3
:1006c0000200be0012000700844f75000000060003
:1006d0000200be006450e100050036006420e10025
:1006e000020036000968a30001003a000800be00bd
:1006f0000160a0004f0678004f05be004f04be0009
:1007000000000600f0ff2f00f1ff2700f9ff37007f
:10071000c70ade00f107b200f50fb2000800320090
:10072000e1cf4200020032000170a0002400050069
:10073000810f70000100320004080500440005002c
:10074000810f700002003a00140005008502e900e4
:100750000000400081c04800fcff3b000170a00089
:04076000240005006c
:020000040000fa
:0200000401f009
:04000000e4fb00001d
:020000040000fa
:0200000401f009
:04000400ff7f00007a
:020000040000fa
:0200000401f009
:04000800efff000006
:020000040000fa
:0200000401f009
:04000c00ffff0000f2
:020000040000fa
:0200000401f009
:04001000ffff0000ee
:020000040000fa
:0200000401f009
:04001400ffff0000ea
:020000040000fa
:0200000401f009
:04001800ffff0000e6
:020000040000fa
:1000080090010000900100009001000090010000a4
:100018009001000090010000900100009001000094
:1000280090010000b6070000900100009001000058
:10003800e807000090010000900100009001000016
:100048009001000090010000900100009001000064
:10005800900100006e0a000090010000900100006d
:100068009001000090010000900100009001000044
:1000780090010000e20800009001000090010000db
:100088009001000090010000900100009001000024
:100098001a0800004c0800007e080000b0080000a4
:1000a8009001000090010000900100009001000004
:1000b80090010000900100009001000090010000f4
:1000c80090010000900100009001000090010000e4
:1000d80090010000900100009001000090010000d4
:1000e80090010000900100009001000090010000c4
:0800f8009001000090010000de
:020000040000fa
:1001080090010000900100009001000090010000a3
:100118009001000090010000900100009001000093
:1001280090010000b6070000900100009001000057
:10013800e807000090010000900100009001000015
:100148009001000090010000900100009001000063
:10015800900100006e0a000090010000900100006c
:100168009001000090010000900100009001000043
:1001780090010000e20800009001000090010000da
:100188009001000090010000900100009001000023
:100198001a0800004c0800007e080000b0080000a3
:1001a8009001000090010000900100009001000003
:1001b80090010000900100009001000090010000f3
:1001c80090010000900100009001000090010000e3
:1001d80090010000900100009001000090010000d3
:1001e80090010000900100009001000090010000c3
:0801f8009001000090010000dd
:020000040000fa
:0807640000800000700000009d
:020000040000fa
:10076c000200fa00004f7800114798001e80fb0031
:10077c00c800dd001e4090000080fb00008070006f
:10078c000080fa00000006000800fa00004f780014
:10079c001e80fb006101b900220798003307980006
:1007ac0080012000010020002e019000be0190006d
:1007bc00800f5100818f59008b003e002e0090005d
:1007cc00be00900000600100180037001c003700cc
:1007dc001f00370023003700260037002a0037009f
:1007ec002d00370031003700340037003800370057
:1007fc003b0037003f003700420037004400370011
:10080c00480037004b0037004f00370052003700cc
:10081c0056003700590037005d0037006000370084
:10082c0064003700670037006b00370000030700d7
:10083c004800de000080fb00100798006c003700b9
:10084c00fb0207000080fb001007980068003700cf
:10085c00fb0207004800de000080fb001007980038
:10086c0063003700f60207000080fb0010079800b9
:10087c005f003700f60207004800de000080fb0036
:10088c00100798005a003700f10207000080fb00a7
:10089c001007980056003700f10207004800de00f0
:1008ac000080fb001007980051003700ec02070095
:1008bc000080fb00100798004d003700ec02070089
:1008cc004800de000080fb0010079800480037004d
:1008dc00e70207000080fb00100798004400370077
:1008ec00e70207004800de000080fb0010079800bc
:1008fc003f003700e20207000080fb001007980061
:10090c003b0037008000eb001107980038003700df
:10091c00c04080004800de000080fb0010079800fb
:10092c0033003700c04080000080fb0010079800a7
:10093c002f003700d04080004800de000080fb0014
:10094c00100798002a003700d04080000080fb0080
:10095c001007980026003700e04080004800de00b9
:10096c000080fb001007980021003700e040800059
:10097c000080fb00100798001d003700f04080003d
:10098c004800de000080fb001007980018003700bc
:10099c00f04080000080fb00100798001400370026
:1009ac00004180004800de000080fb00100798002a
:1009bc000f003700004180000080fb0010079800fa
:1009cc000b003700104180004800de000080fb0067
:1009dc001007980006003700104180000080fb00d3
:1009ec0010079800020037000001eb001207980076
:1009fc001e0090000080fa00000006000600fa00bd
:100a0c00004f7800114798001e80fb006101b9006f
:100a1c001207980023079800800120000100200095
:100a2c001e019000ae019000800f5100818f590083
:100a3c00a1003e001e009000ae009000006001007e
:100a4c00180037001a0037001c0037001e00370052
:100a5c002000370022003700240037002600370022
:100a6c00280037002a0037002c0037002e003700f2
:100a7c00300037004f003700510037005800370066
:100a8c005a00370061003700630037006a003700f6
:100a9c006c00370073003700750037007c0037009e
:100aac007e0037001e40900000e8b700820037003f
:100abc001e40900001e8b7007f0037001e409000f8
:100acc0002e8b7007c0037001e40900003e8b70036
:100adc00790037001e40900004e8b700760037001c
:100aec001e40900005e8b700730037001e409000d0
:100afc0006e8b700700037001e40900007e8b7000a
:100b0c006d0037001e40900008e8b7006a003700ff
:100b1c001e40900009e8b700670037001e409000a7
:100b2c000ae8b700640037001e4090000be8b700dd
:100b3c0061003700118020009140780000c8bf0090
:100b4c0007ff070016020700318020009140780053
:100b5c0002c8bf0002ff07001702070051802000e7
:100b6c009140780004c8bf00fdfe07001802070082
:100b7c00718020009140780006c8bf00f8fe070085
:100b8c0019020700918020009140780008c8bf002e
:100b9c00f3fe07001a020700b18020009140780094
:100bac000ac8bf00eefe07001b020700d3010700b6
:100bbc00410037001e4090000ce8b7003e003700a3
:100bcc001e4090000de8b700d180200091407800c5
:100bdc000cc8bf00e2fe0700c0408800360037009a
:100bec001e4090000ee8b700330037001e40900006
:100bfc000fe8b700f1802000914078000ec8bf00cc
:100c0c00d7fe0700d04088002b0037001e40900014
:100c1c0010e8b700280037001e40900011e8b7001c
:100c2c00118120009140780010c8bf00ccfe070055
:100c3c00e0408800200037001e40900012e8b7000a
:100c4c001d0037001e40900013e8b70031812000d2
:100c5c009140780012c8bf00c1fe0700f040880028
:100c6c00150037001e40900014e8b7001200370042
:100c7c001e40900015e8b70051812000914078008b
:100c8c0014c8bf00b6fe0700004188000a003700f8
:100c9c001e40900016e8b700070037001e40900079
:100cac0017e8b700718120009140780016c8bf008a
:100cbc00abfe0700104188000080fa00000006001f
:100ccc000000fa0043a1a90042e1a8002114200071
:100cdc0091407800f0c9b30000c0600042e1b70059
:100cec00211420009140780080cfb30000c0600038
:100cfc000004a00042e1b70047a1a90046e1a8000a
:100d0c006114200091407800f0c9b30000c060006d
:100d1c0046e1b700611420009140780080cfb30009
:100d2c0000c060000004a00046e1b7004ba1a90080
:100d3c004ae1a800a114200091407800f0c9b3004a
:100d4c0000c060004ae1b700a11420009140780077
:100d5c0080cfb30000c060000004a0004ae1b700df
:100d6c004fa1a9004ee1a800e114200091407800a9
:100d7c00f0c9b30000c060004ee1b700e1142000e0
:100d8c009140780080cfb30000c060000004a00048
:100d9c004ee1b70053a1a90052e1a8002115200093
:100dac0091407800f0c9b30000c0600052e1b70078
:100dbc00211520009140780080cfb30000c0600066
:100dcc000004a00052e1b70057a1a90056e1a80009
:100ddc006115200091407800f0c9b30000c060009c
:100dec0056e1b700611520009140780080cfb30028
:100dfc0000c060000004a00056e1b70041092000cb
:100e0c0091407800f0c8b30000c0600001c6b30088
:100e1c000140700094e0b700610920009140780017
:100e2c0080cfb30000c060006040b30096e0b70014
:100e3c00210a20009140780080cfb30000c06000f0
:100e4c006040b300a2e0b700210a20009140780076
:100e5c00f0c8b30000c0600001c6b30001407000d0
:100e6c00a2e0b700310a20009140780080cfb30097
:100e7c0000c060006040b300a3e0b700310a20005e
:100e8c0091407800f0c8b30000c0600001c6b30008
:100e9c0001407000a3e0b7008c20a8008c80a80053
:100eac008f80a8008fa0a8008fc0a8008fe0a8009a
:100ebc008cc0a90011e1a90011a1a90010c1a900c1
:100ecc000111200091407800f0ccb30000c060000c
:100edc0010e1b7001021a9000080eb006008880029
:100eec000000eb003008880011e1a8008ea0a900da
:100efc001fe1a9001fa1a9001ec1a900e11120003a
:100f0c0091407800f0ccb30000c0600001c2b30087
:100f1c00014070001ee1b7001e21a900901d840045
:100f2c00a11d8400fdfc0700f2282c0053cf2300e8
:100f3c0025fd0700020020000338240056fd0700a1
:100f4c0097fd0700d00888000000eb00a00888007f
:100f5c001fe1a8008ea0a8000080fa000000060087
:100f6c00801f78003400f80000002000a0018800e9
:100f7c000000fa00d5c2bf00614060000004e00030
:100f8c00050032000000eb0030088800000a8000e9
:100f9c002041880006003700d5c2bf0061406000c8
:100fac000004e00002003a00000a8000c040880003
:100fbc008420a9000080fa003400f9004f0078006a
:100fcc0000400600801f78003400f800000020006c
:100fdc00a00188000000fa00d5c2bf00624060008a
:100fec000004e000050032000000eb00300888002f
:100ffc00200a80002041880006003700d5c2bf00bf
:10100c00624060000004e00002003a00200a800008
:10101c00d04088008480a9000080fa003400f900d8
:10102c004f00780000400600801f78003400f80064
:10103c0000002000a00188000000fa00d5c2bf000b
:10104c00644060000004e000050032000000eb008a
:10105c0030088800400a80002041880006003700d4
:10106c00d5c2bf00644060000004e00002003a00fa
:10107c00400a8000e04088008780a9000080fa00c8
:10108c003400f9004f00780000400600801f780003
:10109c003400f80000002000a00188000000fa00d5
:1010ac00d5c2bf00684060000004e00005003200bb
:1010bc000000eb0030088800600a800020418800a6
:1010cc0006003700d5c2bf00684060000004e00095
:1010dc0002003a00600a8000f040880087a0a90056
:1010ec000080fa003400f9004f0078000040060040
:1010fc00801f78003400f80000002000a001880058
:10110c000000fa00d4c2bf00704060000004e00090
:10111c00050032000000eb0030088800800a8000d7
:10112c002041880006003700d4c2bf007040600028
:10113c000004e00002003a00800a800000418800b0
:10114c0087c0a9000080fa003400f9004f00780035
:10115c0000400600801f78003400f80000002000da
:10116c00a00188000000fa00d4c2bf000042b20007
:10117c000004e000050032000000eb00300888009d
:10118c00a00a80002041880006003700d4c2bf00ae
:10119c000042b2000004e00002003a00a00a800005
:1011ac001041880087e0a9000080fa003400f900a3
:1011bc004f007800004006003400f800881f7800cb
:1011cc0008002000a80188004f0478000000fa00f5
:1011dc000080fa003400f900004006000000fa001c
:1011ec00d202a900d222a900d242a900d262a9003f
:1011fc00d2c2a900d2e2a900411820009140780087
:10120c0080cfb30000c0600084e1b700a1182000bb
:10121c009140780080cfb30000c060008ae1b70035
:10122c00011920009140780080cfb30000c060000d
:10123c0090e1b700611920009140780080cfb30095
:10124c0000c0600096e1b700811a20009140780040
:10125c0080cfb30000c06000a8e1b700e11a200005
:10126c009140780080cfb30000c06000aee1b700c1
:10127c008461a8008a61a8009061a8009661a8000a
:10128c00a861a800ae61a8000000eb00100c88005b
:10129c000000eb00400c88000000eb00700c880094
:1012ac000000eb00a00c88000000eb00300d880063
:1012bc000000eb00600d88008ce0a90013e1a90090
:1012cc0013a1a90012c1a90021112000914078009e
:1012dc00f0ccb30000c0600012e1b7001221a900ed
:1012ec000080eb00700888000000eb0050088800bc
:1012fc0013e1a8000080fa00000006000000fa00cc
:10130c000000eb0050088800411820009140780044
:10131c0080cfb30000c060000014a00084e1b700cf
:10132c00a11820009140780080cfb30000c060006d
:10133c000014a0008ae1b700011920009140780048
:10134c0080cfb30000c060000014a00090e1b70093
:10135c00611920009140780080cfb30000c060007c
:10136c000014a00096e1b700811a2000914078008b
:10137c0080cfb30000c060000014a000a8e1b7004b
:10138c00e11a20009140780080cfb30000c06000cb
:10139c000014a000aee1b7000080fa0000000600c7
:1013ac000200fa00000f78001e007800100c880074
:1013bc000080fa00000006000200fa00000f78001e
:1013cc001e007800400c88000080fa000000060027
:1013dc000200fa00000f78001e007800700c8800e4
:1013ec000080fa00000006000200fa00000f7800ee
:1013fc001e007800a00c88000080fa000000060097
:10140c000200fa00000f78001e007800300d8800f2
:10141c000080fa00000006000200fa00000f7800bd
:10142c001e007800600d88000080fa0000000600a5
:10143c000000fa00100c80000080fa00000006008a
:10144c000000fa00400c80000080fa00000006004a
:10145c000000fa00700c80000080fa00000006000a
:10146c000000fa00a00c80000080fa0000000600ca
:10147c000000fa00300d80000080fa000000060029
:10148c000000fa00600d80000080fa0000000600e9
:10149c000000fa0007e2a9000702a80000052000de
:1014ac00501088002808a9002828a900a1092000ac
:1014bc009140780000c7b30000c070009ae0b700fc
:1014cc008da0a80007e2a8000080fa00000006002a
:1014dc003600f800809fbe00829fbe00849fbe0035
:1014ec00869fbe003400f80000002000a001880098
:1014fc000000fa008da0a90008c2bf006440600083
:10150c000004e00009003a0008c2bf000042b2002b
:10151c000004e00005003a000010800029e8b70044
:10152c002808a8002828a9004200370008c2bf00dc
:10153c00644060000004e0001b003a0008c2bf00d9
:10154c000042b2000004e0001700320028c8bf00bf
:10155c00614060000004e000060032002808a90089
:10156c002828a8000010800026e8b7000782a800f1
:10157c003000370028c8bf00624060000004e00063
:10158c002c003200001080008040780026c8bf007c
:10159c001afd07000782a80026c8bf000040e8001b
:1015ac0026e8b7002300370008c2bf006440600083
:1015bc000004e0000f00320008c2bf000042b2007d
:1015cc000004e0000b003a000010800029e8b7008e
:1015dc0026c8bf006cfc07000080fb0010108800c0
:1015ec000782a80026c8bf000040e80026e8b70024
:1015fc001000370008c2bf00644060000004e00027
:10160c000c00320008c2bf000042b2000004e0002f
:10161c000800320026c8bf005bfc07000080fb00fe
:10162c00101088000782a80026c8bf000040e80000
:10163c0026e8b70085a0a9008da0a8000080fa00bc
:10164c003400f9004f03be004f02be004f01be0034
:10165c004f00be003600f900004006000000fa0002
:10166c008bff07000080fa00000006000000fa0063
:10167c00faff0700d202a900d6c2bf006140600089
:10168c0000c0ea006140600061416000612d2000f3
:10169c0091407800e0cfb30000c0600002407000c1
:0816ac00d6e2b700f4ff37009d
:020000040000fa
:1016b40026080000020000000200000000000000f4
:1016c40028080000020000000000000018080000c4
:1016d4000e000000020000000000000000000000f6
:1016e40000000000000000000000000000080000ee
:0c16f400180000000000000000000000d2
:00000001FF
